{
  "_format": "hh-sol-artifact-1",
  "contractName": "GradCertNFT",
  "sourceName": "contracts/GradCertNFT.sol",
  "abi": [
    {
      "inputs": [
        {
          "internalType": "address",
          "name": "initialOwner",
          "type": "address"
        }
      ],
      "stateMutability": "nonpayable",
      "type": "constructor"
    },
    {
      "inputs": [],
      "name": "ERC721EnumerableForbiddenBatchMint",
      "type": "error"
    },
    {
      "inputs": [
        {
          "internalType": "address",
          "name": "sender",
          "type": "address"
        },
        {
          "internalType": "uint256",
          "name": "tokenId",
          "type": "uint256"
        },
        {
          "internalType": "address",
          "name": "owner",
          "type": "address"
        }
      ],
      "name": "ERC721IncorrectOwner",
      "type": "error"
    },
    {
      "inputs": [
        {
          "internalType": "address",
          "name": "operator",
          "type": "address"
        },
        {
          "internalType": "uint256",
          "name": "tokenId",
          "type": "uint256"
        }
      ],
      "name": "ERC721InsufficientApproval",
      "type": "error"
    },
    {
      "inputs": [
        {
          "internalType": "address",
          "name": "approver",
          "type": "address"
        }
      ],
      "name": "ERC721InvalidApprover",
      "type": "error"
    },
    {
      "inputs": [
        {
          "internalType": "address",
          "name": "operator",
          "type": "address"
        }
      ],
      "name": "ERC721InvalidOperator",
      "type": "error"
    },
    {
      "inputs": [
        {
          "internalType": "address",
          "name": "owner",
          "type": "address"
        }
      ],
      "name": "ERC721InvalidOwner",
      "type": "error"
    },
    {
      "inputs": [
        {
          "internalType": "address",
          "name": "receiver",
          "type": "address"
        }
      ],
      "name": "ERC721InvalidReceiver",
      "type": "error"
    },
    {
      "inputs": [
        {
          "internalType": "address",
          "name": "sender",
          "type": "address"
        }
      ],
      "name": "ERC721InvalidSender",
      "type": "error"
    },
    {
      "inputs": [
        {
          "internalType": "uint256",
          "name": "tokenId",
          "type": "uint256"
        }
      ],
      "name": "ERC721NonexistentToken",
      "type": "error"
    },
    {
      "inputs": [
        {
          "internalType": "address",
          "name": "owner",
          "type": "address"
        },
        {
          "internalType": "uint256",
          "name": "index",
          "type": "uint256"
        }
      ],
      "name": "ERC721OutOfBoundsIndex",
      "type": "error"
    },
    {
      "inputs": [
        {
          "internalType": "address",
          "name": "owner",
          "type": "address"
        }
      ],
      "name": "OwnableInvalidOwner",
      "type": "error"
    },
    {
      "inputs": [
        {
          "internalType": "address",
          "name": "account",
          "type": "address"
        }
      ],
      "name": "OwnableUnauthorizedAccount",
      "type": "error"
    },
    {
      "anonymous": false,
      "inputs": [
        {
          "indexed": true,
          "internalType": "address",
          "name": "owner",
          "type": "address"
        },
        {
          "indexed": true,
          "internalType": "address",
          "name": "approved",
          "type": "address"
        },
        {
          "indexed": true,
          "internalType": "uint256",
          "name": "tokenId",
          "type": "uint256"
        }
      ],
      "name": "Approval",
      "type": "event"
    },
    {
      "anonymous": false,
      "inputs": [
        {
          "indexed": true,
          "internalType": "address",
          "name": "owner",
          "type": "address"
        },
        {
          "indexed": true,
          "internalType": "address",
          "name": "operator",
          "type": "address"
        },
        {
          "indexed": false,
          "internalType": "bool",
          "name": "approved",
          "type": "bool"
        }
      ],
      "name": "ApprovalForAll",
      "type": "event"
    },
    {
      "anonymous": false,
      "inputs": [
        {
          "indexed": true,
          "internalType": "address",
          "name": "to",
          "type": "address"
        },
        {
          "indexed": true,
          "internalType": "uint256",
          "name": "tokenId",
          "type": "uint256"
        },
        {
          "indexed": false,
          "internalType": "string",
          "name": "metadataURI",
          "type": "string"
        }
      ],
      "name": "CertificateIssued",
      "type": "event"
    },
    {
      "anonymous": false,
      "inputs": [
        {
          "indexed": true,
          "internalType": "uint256",
          "name": "tokenId",
          "type": "uint256"
        }
      ],
      "name": "CertificateRevoked",
      "type": "event"
    },
    {
      "anonymous": false,
      "inputs": [
        {
          "indexed": true,
          "internalType": "address",
          "name": "previousOwner",
          "type": "address"
        },
        {
          "indexed": true,
          "internalType": "address",
          "name": "newOwner",
          "type": "address"
        }
      ],
      "name": "OwnershipTransferred",
      "type": "event"
    },
    {
      "anonymous": false,
      "inputs": [
        {
          "indexed": true,
          "internalType": "address",
          "name": "from",
          "type": "address"
        },
        {
          "indexed": true,
          "internalType": "address",
          "name": "to",
          "type": "address"
        },
        {
          "indexed": true,
          "internalType": "uint256",
          "name": "tokenId",
          "type": "uint256"
        }
      ],
      "name": "Transfer",
      "type": "event"
    },
    {
      "inputs": [
        {
          "internalType": "address",
          "name": "to",
          "type": "address"
        },
        {
          "internalType": "uint256",
          "name": "tokenId",
          "type": "uint256"
        }
      ],
      "name": "approve",
      "outputs": [],
      "stateMutability": "nonpayable",
      "type": "function"
    },
    {
      "inputs": [
        {
          "internalType": "address",
          "name": "owner",
          "type": "address"
        }
      ],
      "name": "balanceOf",
      "outputs": [
        {
          "internalType": "uint256",
          "name": "",
          "type": "uint256"
        }
      ],
      "stateMutability": "view",
      "type": "function"
    },
    {
      "inputs": [],
      "name": "getAllCertificates",
      "outputs": [
        {
          "components": [
            {
              "internalType": "uint256",
              "name": "tokenId",
              "type": "uint256"
            },
            {
              "internalType": "string",
              "name": "metadataURI",
              "type": "string"
            },
            {
              "internalType": "bool",
              "name": "isValid",
              "type": "bool"
            }
          ],
          "internalType": "struct GradCertNFT.Certificate[]",
          "name": "",
          "type": "tuple[]"
        }
      ],
      "stateMutability": "view",
      "type": "function"
    },
    {
      "inputs": [
        {
          "internalType": "uint256",
          "name": "tokenId",
          "type": "uint256"
        }
      ],
      "name": "getApproved",
      "outputs": [
        {
          "internalType": "address",
          "name": "",
          "type": "address"
        }
      ],
      "stateMutability": "view",
      "type": "function"
    },
    {
      "inputs": [
        {
          "internalType": "uint256",
          "name": "tokenId",
          "type": "uint256"
        }
      ],
      "name": "getCertificateDetails",
      "outputs": [
        {
          "components": [
            {
              "internalType": "uint256",
              "name": "tokenId",
              "type": "uint256"
            },
            {
              "internalType": "string",
              "name": "metadataURI",
              "type": "string"
            },
            {
              "internalType": "bool",
              "name": "isValid",
              "type": "bool"
            }
          ],
          "internalType": "struct GradCertNFT.Certificate",
          "name": "",
          "type": "tuple"
        }
      ],
      "stateMutability": "view",
      "type": "function"
    },
    {
      "inputs": [
        {
          "internalType": "uint256",
          "name": "tokenId",
          "type": "uint256"
        }
      ],
      "name": "getCertificateOwner",
      "outputs": [
        {
          "internalType": "address",
          "name": "",
          "type": "address"
        }
      ],
      "stateMutability": "view",
      "type": "function"
    },
    {
      "inputs": [
        {
          "internalType": "address",
          "name": "owner",
          "type": "address"
        }
      ],
      "name": "getOwnerCertificates",
      "outputs": [
        {
          "components": [
            {
              "internalType": "uint256",
              "name": "tokenId",
              "type": "uint256"
            },
            {
              "internalType": "string",
              "name": "metadataURI",
              "type": "string"
            },
            {
              "internalType": "bool",
              "name": "isValid",
              "type": "bool"
            }
          ],
          "internalType": "struct GradCertNFT.Certificate[]",
          "name": "",
          "type": "tuple[]"
        }
      ],
      "stateMutability": "view",
      "type": "function"
    },
    {
      "inputs": [
        {
          "internalType": "address",
          "name": "",
          "type": "address"
        }
      ],
      "name": "hasCertificate",
      "outputs": [
        {
          "internalType": "bool",
          "name": "",
          "type": "bool"
        }
      ],
      "stateMutability": "view",
      "type": "function"
    },
    {
      "inputs": [
        {
          "internalType": "address",
          "name": "owner",
          "type": "address"
        },
        {
          "internalType": "address",
          "name": "operator",
          "type": "address"
        }
      ],
      "name": "isApprovedForAll",
      "outputs": [
        {
          "internalType": "bool",
          "name": "",
          "type": "bool"
        }
      ],
      "stateMutability": "view",
      "type": "function"
    },
    {
      "inputs": [
        {
          "internalType": "uint256",
          "name": "tokenId",
          "type": "uint256"
        }
      ],
      "name": "isValidCertificate",
      "outputs": [
        {
          "internalType": "bool",
          "name": "",
          "type": "bool"
        }
      ],
      "stateMutability": "view",
      "type": "function"
    },
    {
      "inputs": [
        {
          "internalType": "address",
          "name": "to",
          "type": "address"
        },
        {
          "internalType": "string",
          "name": "metadataURI",
          "type": "string"
        }
      ],
      "name": "issueDegree",
      "outputs": [
        {
          "internalType": "uint256",
          "name": "",
          "type": "uint256"
        }
      ],
      "stateMutability": "nonpayable",
      "type": "function"
    },
    {
      "inputs": [],
      "name": "name",
      "outputs": [
        {
          "internalType": "string",
          "name": "",
          "type": "string"
        }
      ],
      "stateMutability": "view",
      "type": "function"
    },
    {
      "inputs": [],
      "name": "owner",
      "outputs": [
        {
          "internalType": "address",
          "name": "",
          "type": "address"
        }
      ],
      "stateMutability": "view",
      "type": "function"
    },
    {
      "inputs": [
        {
          "internalType": "uint256",
          "name": "tokenId",
          "type": "uint256"
        }
      ],
      "name": "ownerOf",
      "outputs": [
        {
          "internalType": "address",
          "name": "",
          "type": "address"
        }
      ],
      "stateMutability": "view",
      "type": "function"
    },
    {
      "inputs": [],
      "name": "renounceOwnership",
      "outputs": [],
      "stateMutability": "nonpayable",
      "type": "function"
    },
    {
      "inputs": [
        {
          "internalType": "uint256",
          "name": "tokenId",
          "type": "uint256"
        }
      ],
      "name": "revokeCertificate",
      "outputs": [],
      "stateMutability": "nonpayable",
      "type": "function"
    },
    {
      "inputs": [
        {
          "internalType": "address",
          "name": "from",
          "type": "address"
        },
        {
          "internalType": "address",
          "name": "to",
          "type": "address"
        },
        {
          "internalType": "uint256",
          "name": "tokenId",
          "type": "uint256"
        }
      ],
      "name": "safeTransferFrom",
      "outputs": [],
      "stateMutability": "nonpayable",
      "type": "function"
    },
    {
      "inputs": [
        {
          "internalType": "address",
          "name": "from",
          "type": "address"
        },
        {
          "internalType": "address",
          "name": "to",
          "type": "address"
        },
        {
          "internalType": "uint256",
          "name": "tokenId",
          "type": "uint256"
        },
        {
          "internalType": "bytes",
          "name": "data",
          "type": "bytes"
        }
      ],
      "name": "safeTransferFrom",
      "outputs": [],
      "stateMutability": "nonpayable",
      "type": "function"
    },
    {
      "inputs": [
        {
          "internalType": "address",
          "name": "operator",
          "type": "address"
        },
        {
          "internalType": "bool",
          "name": "approved",
          "type": "bool"
        }
      ],
      "name": "setApprovalForAll",
      "outputs": [],
      "stateMutability": "nonpayable",
      "type": "function"
    },
    {
      "inputs": [
        {
          "internalType": "bytes4",
          "name": "interfaceId",
          "type": "bytes4"
        }
      ],
      "name": "supportsInterface",
      "outputs": [
        {
          "internalType": "bool",
          "name": "",
          "type": "bool"
        }
      ],
      "stateMutability": "view",
      "type": "function"
    },
    {
      "inputs": [],
      "name": "symbol",
      "outputs": [
        {
          "internalType": "string",
          "name": "",
          "type": "string"
        }
      ],
      "stateMutability": "view",
      "type": "function"
    },
    {
      "inputs": [
        {
          "internalType": "uint256",
          "name": "index",
          "type": "uint256"
        }
      ],
      "name": "tokenByIndex",
      "outputs": [
        {
          "internalType": "uint256",
          "name": "",
          "type": "uint256"
        }
      ],
      "stateMutability": "view",
      "type": "function"
    },
    {
      "inputs": [
        {
          "internalType": "address",
          "name": "owner",
          "type": "address"
        },
        {
          "internalType": "uint256",
          "name": "index",
          "type": "uint256"
        }
      ],
      "name": "tokenOfOwnerByIndex",
      "outputs": [
        {
          "internalType": "uint256",
          "name": "",
          "type": "uint256"
        }
      ],
      "stateMutability": "view",
      "type": "function"
    },
    {
      "inputs": [
        {
          "internalType": "uint256",
          "name": "tokenId",
          "type": "uint256"
        }
      ],
      "name": "tokenURI",
      "outputs": [
        {
          "internalType": "string",
          "name": "",
          "type": "string"
        }
      ],
      "stateMutability": "view",
      "type": "function"
    },
    {
      "inputs": [],
      "name": "totalSupply",
      "outputs": [
        {
          "internalType": "uint256",
          "name": "",
          "type": "uint256"
        }
      ],
      "stateMutability": "view",
      "type": "function"
    },
    {
      "inputs": [
        {
          "internalType": "address",
          "name": "from",
          "type": "address"
        },
        {
          "internalType": "address",
          "name": "to",
          "type": "address"
        },
        {
          "internalType": "uint256",
          "name": "tokenId",
          "type": "uint256"
        }
      ],
      "name": "transferFrom",
      "outputs": [],
      "stateMutability": "nonpayable",
      "type": "function"
    },
    {
      "inputs": [
        {
          "internalType": "address",
          "name": "newOwner",
          "type": "address"
        }
      ],
      "name": "transferOwnership",
      "outputs": [],
      "stateMutability": "nonpayable",
      "type": "function"
    },
    {
      "inputs": [
        {
          "internalType": "uint256",
          "name": "",
          "type": "uint256"
        }
      ],
      "name": "validCertificates",
      "outputs": [
        {
          "internalType": "bool",
          "name": "",
          "type": "bool"
        }
      ],
      "stateMutability": "view",
      "type": "function"
    }
  ],
  "bytecode": "0x60806040523480156200001157600080fd5b5060405162003dea38038062003dea833981810160405281019062000037919062000288565b806040518060400160405280601081526020017f556e6976657273697479446567726565000000000000000000000000000000008152506040518060400160405280600381526020017f55444300000000000000000000000000000000000000000000000000000000008152508160009081620000b5919062000534565b508060019081620000c7919062000534565b505050600073ffffffffffffffffffffffffffffffffffffffff168173ffffffffffffffffffffffffffffffffffffffff16036200013f5760006040517f1e4fbdf70000000000000000000000000000000000000000000000000000000081526004016200013691906200062c565b60405180910390fd5b62000150816200015860201b60201c565b505062000649565b6000600a60009054906101000a900473ffffffffffffffffffffffffffffffffffffffff16905081600a60006101000a81548173ffffffffffffffffffffffffffffffffffffffff021916908373ffffffffffffffffffffffffffffffffffffffff1602179055508173ffffffffffffffffffffffffffffffffffffffff168173ffffffffffffffffffffffffffffffffffffffff167f8be0079c531659141344cd1fd0a4f28419497f9722a3daafe3b4186f6b6457e060405160405180910390a35050565b600080fd5b600073ffffffffffffffffffffffffffffffffffffffff82169050919050565b6000620002508262000223565b9050919050565b620002628162000243565b81146200026e57600080fd5b50565b600081519050620002828162000257565b92915050565b600060208284031215620002a157620002a06200021e565b5b6000620002b18482850162000271565b91505092915050565b600081519050919050565b7f4e487b7100000000000000000000000000000000000000000000000000000000600052604160045260246000fd5b7f4e487b7100000000000000000000000000000000000000000000000000000000600052602260045260246000fd5b600060028204905060018216806200033c57607f821691505b602082108103620003525762000351620002f4565b5b50919050565b60008190508160005260206000209050919050565b60006020601f8301049050919050565b600082821b905092915050565b600060088302620003bc7fffffffffffffffffffffffffffffffffffffffffffffffffffffffffffffffff826200037d565b620003c886836200037d565b95508019841693508086168417925050509392505050565b6000819050919050565b6000819050919050565b6000620004156200040f6200040984620003e0565b620003ea565b620003e0565b9050919050565b6000819050919050565b6200043183620003f4565b6200044962000440826200041c565b8484546200038a565b825550505050565b600090565b6200046062000451565b6200046d81848462000426565b505050565b5b8181101562000495576200048960008262000456565b60018101905062000473565b5050565b601f821115620004e457620004ae8162000358565b620004b9846200036d565b81016020851015620004c9578190505b620004e1620004d8856200036d565b83018262000472565b50505b505050565b600082821c905092915050565b60006200050960001984600802620004e9565b1980831691505092915050565b6000620005248383620004f6565b9150826002028217905092915050565b6200053f82620002ba565b67ffffffffffffffff8111156200055b576200055a620002c5565b5b62000567825462000323565b6200057482828562000499565b600060209050601f831160018114620005ac576000841562000597578287015190505b620005a3858262000516565b86555062000613565b601f198416620005bc8662000358565b60005b82811015620005e657848901518255600182019150602085019450602081019050620005bf565b8683101562000606578489015162000602601f891682620004f6565b8355505b6001600288020188555050505b505050505050565b620006268162000243565b82525050565b60006020820190506200064360008301846200061b565b92915050565b61379180620006596000396000f3fe608060405234801561001057600080fd5b50600436106101c45760003560e01c806370a08231116100f9578063a901fe5e11610097578063c542f2ac11610071578063c542f2ac14610551578063c87b56dd14610581578063e985e9c5146105b1578063f2fde38b146105e1576101c4565b8063a901fe5e146104d5578063b88d4fde14610505578063c4cdfe1e14610521576101c4565b806384e814ef116100d357806384e814ef1461044d5780638da5cb5b1461047d57806395d89b411461049b578063a22cb465146104b9576101c4565b806370a08231146103e3578063715018a61461041357806379b08c5b1461041d576101c4565b806318160ddd116101665780632f745c59116101405780632f745c591461033757806342842e0e146103675780634f6ccce7146103835780636352211e146103b3576101c4565b806318160ddd146102cd57806323b872dd146102eb5780632558839614610307576101c4565b8063081812fc116101a2578063081812fc14610233578063095ea7b3146102635780630c02199b1461027f57806313fcfe80146102af576101c4565b806301ffc9a7146101c957806306f5497e146101f957806306fdde0314610215575b600080fd5b6101e360048036038101906101de91906127c0565b6105fd565b6040516101f09190612808565b60405180910390f35b610213600480360381019061020e9190612859565b610677565b005b61021d610792565b60405161022a9190612916565b60405180910390f35b61024d60048036038101906102489190612859565b610824565b60405161025a9190612979565b60405180910390f35b61027d600480360381019061027891906129c0565b610840565b005b61029960048036038101906102949190612a00565b610856565b6040516102a69190612808565b60405180910390f35b6102b7610876565b6040516102c49190612ba7565b60405180910390f35b6102d561098e565b6040516102e29190612bd8565b60405180910390f35b61030560048036038101906103009190612bf3565b61099b565b005b610321600480360381019061031c9190612859565b610a9d565b60405161032e9190612808565b60405180910390f35b610351600480360381019061034c91906129c0565b610ac7565b60405161035e9190612bd8565b60405180910390f35b610381600480360381019061037c9190612bf3565b610b70565b005b61039d60048036038101906103989190612859565b610b90565b6040516103aa9190612bd8565b60405180910390f35b6103cd60048036038101906103c89190612859565b610c06565b6040516103da9190612979565b60405180910390f35b6103fd60048036038101906103f89190612a00565b610c18565b60405161040a9190612bd8565b60405180910390f35b61041b610cd2565b005b61043760048036038101906104329190612a00565b610ce6565b6040516104449190612ba7565b60405180910390f35b61046760048036038101906104629190612859565b610de8565b6040516104749190612979565b60405180910390f35b610485610e42565b6040516104929190612979565b60405180910390f35b6104a3610e6c565b6040516104b09190612916565b60405180910390f35b6104d360048036038101906104ce9190612c72565b610efe565b005b6104ef60048036038101906104ea9190612859565b610f14565b6040516104fc9190612d02565b60405180910390f35b61051f600480360381019061051a9190612e59565b610fb0565b005b61053b60048036038101906105369190612859565b610fd5565b6040516105489190612808565b60405180910390f35b61056b60048036038101906105669190612f7d565b610ff5565b6040516105789190612bd8565b60405180910390f35b61059b60048036038101906105969190612859565b61121b565b6040516105a89190612916565b60405180910390f35b6105cb60048036038101906105c69190612fd9565b611308565b6040516105d89190612808565b60405180910390f35b6105fb60048036038101906105f69190612a00565b61139c565b005b60007f780e9d63000000000000000000000000000000000000000000000000000000007bffffffffffffffffffffffffffffffffffffffffffffffffffffffff1916827bffffffffffffffffffffffffffffffffffffffffffffffffffffffff19161480610670575061066f82611422565b5b9050919050565b61067f611504565b807fefa6c5f47ac2523bb4db18032377bf7fdce0fa9d86eddcae1ca9bba38be615d760405160405180910390a26106b58161158b565b6106f4576040517f08c379a00000000000000000000000000000000000000000000000000000000081526004016106eb90613065565b60405180910390fd5b60006106ff82610c06565b90506000600e60008373ffffffffffffffffffffffffffffffffffffffff1673ffffffffffffffffffffffffffffffffffffffff16815260200190815260200160002060006101000a81548160ff0219169083151502179055506000600d600084815260200190815260200160002060006101000a81548160ff02191690831515021790555061078e82611647565b5050565b6060600080546107a1906130b4565b80601f01602080910402602001604051908101604052809291908181526020018280546107cd906130b4565b801561081a5780601f106107ef5761010080835404028352916020019161081a565b820191906000526020600020905b8154815290600101906020018083116107fd57829003601f168201915b5050505050905090565b600061082f82611672565b50610839826116fa565b9050919050565b610852828261084d611737565b61173f565b5050565b600e6020528060005260406000206000915054906101000a900460ff1681565b6060610880611504565b600061088c600c611751565b905060008167ffffffffffffffff8111156108aa576108a9612d2e565b5b6040519080825280602002602001820160405280156108e357816020015b6108d06126d4565b8152602001906001900390816108c85790505b5090506000600190505b828111610985576108fd8161158b565b1561097257604051806060016040528082815260200161091c8361121b565b8152602001600d600084815260200190815260200160002060009054906101000a900460ff161515815250826001836109559190613114565b8151811061096657610965613148565b5b60200260200101819052505b808061097d90613177565b9150506108ed565b50809250505090565b6000600880549050905090565b600073ffffffffffffffffffffffffffffffffffffffff168273ffffffffffffffffffffffffffffffffffffffff1603610a0d5760006040517f64a0ae92000000000000000000000000000000000000000000000000000000008152600401610a049190612979565b60405180910390fd5b6000610a218383610a1c611737565b61175f565b90508373ffffffffffffffffffffffffffffffffffffffff168173ffffffffffffffffffffffffffffffffffffffff1614610a97578382826040517f64283d7b000000000000000000000000000000000000000000000000000000008152600401610a8e939291906131bf565b60405180910390fd5b50505050565b6000600d600083815260200190815260200160002060009054906101000a900460ff169050919050565b6000610ad283610c18565b8210610b175782826040517fa57d13dc000000000000000000000000000000000000000000000000000000008152600401610b0e9291906131f6565b60405180910390fd5b600660008473ffffffffffffffffffffffffffffffffffffffff1673ffffffffffffffffffffffffffffffffffffffff168152602001908152602001600020600083815260200190815260200160002054905092915050565b610b8b83838360405180602001604052806000815250610fb0565b505050565b6000610b9a61098e565b8210610be0576000826040517fa57d13dc000000000000000000000000000000000000000000000000000000008152600401610bd79291906131f6565b60405180910390fd5b60088281548110610bf457610bf3613148565b5b90600052602060002001549050919050565b6000610c1182611672565b9050919050565b60008073ffffffffffffffffffffffffffffffffffffffff168273ffffffffffffffffffffffffffffffffffffffff1603610c8b5760006040517f89c62b64000000000000000000000000000000000000000000000000000000008152600401610c829190612979565b60405180910390fd5b600360008373ffffffffffffffffffffffffffffffffffffffff1673ffffffffffffffffffffffffffffffffffffffff168152602001908152602001600020549050919050565b610cda611504565b610ce4600061187c565b565b60606000610cf383610c18565b905060008167ffffffffffffffff811115610d1157610d10612d2e565b5b604051908082528060200260200182016040528015610d4a57816020015b610d376126d4565b815260200190600190039081610d2f5790505b50905060005b82811015610ddd576000610d648683610ac7565b90506040518060600160405280828152602001610d808361121b565b8152602001600d600084815260200190815260200160002060009054906101000a900460ff161515815250838381518110610dbe57610dbd613148565b5b6020026020010181905250508080610dd590613177565b915050610d50565b508092505050919050565b6000610df38261158b565b610e32576040517f08c379a0000000000000000000000000000000000000000000000000000000008152600401610e2990613065565b60405180910390fd5b610e3b82610c06565b9050919050565b6000600a60009054906101000a900473ffffffffffffffffffffffffffffffffffffffff16905090565b606060018054610e7b906130b4565b80601f0160208091040260200160405190810160405280929190818152602001828054610ea7906130b4565b8015610ef45780601f10610ec957610100808354040283529160200191610ef4565b820191906000526020600020905b815481529060010190602001808311610ed757829003601f168201915b5050505050905090565b610f10610f09611737565b8383611942565b5050565b610f1c6126d4565b610f258261158b565b610f64576040517f08c379a0000000000000000000000000000000000000000000000000000000008152600401610f5b90613065565b60405180910390fd5b6040518060600160405280838152602001610f7e8461121b565b8152602001600d600085815260200190815260200160002060009054906101000a900460ff1615158152509050919050565b610fbb84848461099b565b610fcf610fc6611737565b85858585611ab1565b50505050565b600d6020528060005260406000206000915054906101000a900460ff1681565b6000610fff611504565b600073ffffffffffffffffffffffffffffffffffffffff168373ffffffffffffffffffffffffffffffffffffffff160361106e576040517f08c379a00000000000000000000000000000000000000000000000000000000081526004016110659061326b565b60405180910390fd5b600e60008473ffffffffffffffffffffffffffffffffffffffff1673ffffffffffffffffffffffffffffffffffffffff16815260200190815260200160002060009054906101000a900460ff16156110fb576040517f08c379a00000000000000000000000000000000000000000000000000000000081526004016110f2906132fd565b60405180910390fd5b611105600c611c62565b6000611111600c611751565b905061111d8482611c78565b82600b6000838152602001908152602001600020908161113d91906134c9565b506001600d600083815260200190815260200160002060006101000a81548160ff0219169083151502179055506001600e60008673ffffffffffffffffffffffffffffffffffffffff1673ffffffffffffffffffffffffffffffffffffffff16815260200190815260200160002060006101000a81548160ff021916908315150217905550808473ffffffffffffffffffffffffffffffffffffffff167f29f8f795343069eda4c1b8173361b78c760d0554fa9a50cd4506019c25183cda856040516112099190612916565b60405180910390a38091505092915050565b60606112268261158b565b611265576040517f08c379a000000000000000000000000000000000000000000000000000000000815260040161125c906135e7565b60405180910390fd5b600b60008381526020019081526020016000208054611283906130b4565b80601f01602080910402602001604051908101604052809291908181526020018280546112af906130b4565b80156112fc5780601f106112d1576101008083540402835291602001916112fc565b820191906000526020600020905b8154815290600101906020018083116112df57829003601f168201915b50505050509050919050565b6000600560008473ffffffffffffffffffffffffffffffffffffffff1673ffffffffffffffffffffffffffffffffffffffff16815260200190815260200160002060008373ffffffffffffffffffffffffffffffffffffffff1673ffffffffffffffffffffffffffffffffffffffff16815260200190815260200160002060009054906101000a900460ff16905092915050565b6113a4611504565b600073ffffffffffffffffffffffffffffffffffffffff168173ffffffffffffffffffffffffffffffffffffffff16036114165760006040517f1e4fbdf700000000000000000000000000000000000000000000000000000000815260040161140d9190612979565b60405180910390fd5b61141f8161187c565b50565b60007f80ac58cd000000000000000000000000000000000000000000000000000000007bffffffffffffffffffffffffffffffffffffffffffffffffffffffff1916827bffffffffffffffffffffffffffffffffffffffffffffffffffffffff191614806114ed57507f5b5e139f000000000000000000000000000000000000000000000000000000007bffffffffffffffffffffffffffffffffffffffffffffffffffffffff1916827bffffffffffffffffffffffffffffffffffffffffffffffffffffffff1916145b806114fd57506114fc82611c96565b5b9050919050565b61150c611737565b73ffffffffffffffffffffffffffffffffffffffff1661152a610e42565b73ffffffffffffffffffffffffffffffffffffffff16146115895761154d611737565b6040517f118cdaa70000000000000000000000000000000000000000000000000000000081526004016115809190612979565b60405180910390fd5b565b60003073ffffffffffffffffffffffffffffffffffffffff16636352211e836040518263ffffffff1660e01b81526004016115c69190612bd8565b602060405180830381865afa92505050801561160057506040513d601f19601f820116820180604052508101906115fd919061361c565b60015b61160d5760009050611642565b600073ffffffffffffffffffffffffffffffffffffffff168173ffffffffffffffffffffffffffffffffffffffff1614159150505b919050565b61165081611d00565b600b6000828152602001908152602001600020600061166f91906126f7565b50565b60008061167e83611d86565b9050600073ffffffffffffffffffffffffffffffffffffffff168173ffffffffffffffffffffffffffffffffffffffff16036116f157826040517f7e2732890000000000000000000000000000000000000000000000000000000081526004016116e89190612bd8565b60405180910390fd5b80915050919050565b60006004600083815260200190815260200160002060009054906101000a900473ffffffffffffffffffffffffffffffffffffffff169050919050565b600033905090565b61174c8383836001611dc3565b505050565b600081600001549050919050565b60008061176d858585611f88565b9050600073ffffffffffffffffffffffffffffffffffffffff168173ffffffffffffffffffffffffffffffffffffffff16036117b1576117ac846121a2565b6117f0565b8473ffffffffffffffffffffffffffffffffffffffff168173ffffffffffffffffffffffffffffffffffffffff16146117ef576117ee81856121eb565b5b5b600073ffffffffffffffffffffffffffffffffffffffff168573ffffffffffffffffffffffffffffffffffffffff16036118325761182d846122d6565b611871565b8473ffffffffffffffffffffffffffffffffffffffff168173ffffffffffffffffffffffffffffffffffffffff16146118705761186f85856123a7565b5b5b809150509392505050565b6000600a60009054906101000a900473ffffffffffffffffffffffffffffffffffffffff16905081600a60006101000a81548173ffffffffffffffffffffffffffffffffffffffff021916908373ffffffffffffffffffffffffffffffffffffffff1602179055508173ffffffffffffffffffffffffffffffffffffffff168173ffffffffffffffffffffffffffffffffffffffff167f8be0079c531659141344cd1fd0a4f28419497f9722a3daafe3b4186f6b6457e060405160405180910390a35050565b600073ffffffffffffffffffffffffffffffffffffffff168273ffffffffffffffffffffffffffffffffffffffff16036119b357816040517f5b08ba180000000000000000000000000000000000000000000000000000000081526004016119aa9190612979565b60405180910390fd5b80600560008573ffffffffffffffffffffffffffffffffffffffff1673ffffffffffffffffffffffffffffffffffffffff16815260200190815260200160002060008473ffffffffffffffffffffffffffffffffffffffff1673ffffffffffffffffffffffffffffffffffffffff16815260200190815260200160002060006101000a81548160ff0219169083151502179055508173ffffffffffffffffffffffffffffffffffffffff168373ffffffffffffffffffffffffffffffffffffffff167f17307eab39ab6107e8899845ad3d59bd9653f200f220920489ca2b5937696c3183604051611aa49190612808565b60405180910390a3505050565b60008373ffffffffffffffffffffffffffffffffffffffff163b1115611c5b578273ffffffffffffffffffffffffffffffffffffffff1663150b7a02868685856040518563ffffffff1660e01b8152600401611b10949392919061369e565b6020604051808303816000875af1925050508015611b4c57506040513d601f19601f82011682018060405250810190611b4991906136ff565b60015b611bd0573d8060008114611b7c576040519150601f19603f3d011682016040523d82523d6000602084013e611b81565b606091505b506000815103611bc857836040517f64a0ae92000000000000000000000000000000000000000000000000000000008152600401611bbf9190612979565b60405180910390fd5b805181602001fd5b63150b7a0260e01b7bffffffffffffffffffffffffffffffffffffffffffffffffffffffff1916817bffffffffffffffffffffffffffffffffffffffffffffffffffffffff191614611c5957836040517f64a0ae92000000000000000000000000000000000000000000000000000000008152600401611c509190612979565b60405180910390fd5b505b5050505050565b6001816000016000828254019250508190555050565b611c92828260405180602001604052806000815250612432565b5050565b60007f01ffc9a7000000000000000000000000000000000000000000000000000000007bffffffffffffffffffffffffffffffffffffffffffffffffffffffff1916827bffffffffffffffffffffffffffffffffffffffffffffffffffffffff1916149050919050565b6000611d0f600083600061175f565b9050600073ffffffffffffffffffffffffffffffffffffffff168173ffffffffffffffffffffffffffffffffffffffff1603611d8257816040517f7e273289000000000000000000000000000000000000000000000000000000008152600401611d799190612bd8565b60405180910390fd5b5050565b60006002600083815260200190815260200160002060009054906101000a900473ffffffffffffffffffffffffffffffffffffffff169050919050565b8080611dfc5750600073ffffffffffffffffffffffffffffffffffffffff168273ffffffffffffffffffffffffffffffffffffffff1614155b15611f30576000611e0c84611672565b9050600073ffffffffffffffffffffffffffffffffffffffff168373ffffffffffffffffffffffffffffffffffffffff1614158015611e7757508273ffffffffffffffffffffffffffffffffffffffff168173ffffffffffffffffffffffffffffffffffffffff1614155b8015611e8a5750611e888184611308565b155b15611ecc57826040517fa9fbf51f000000000000000000000000000000000000000000000000000000008152600401611ec39190612979565b60405180910390fd5b8115611f2e57838573ffffffffffffffffffffffffffffffffffffffff168273ffffffffffffffffffffffffffffffffffffffff167f8c5be1e5ebec7d5bd14f71427d1e84f3dd0314c0f7b2291e5b200ac8c7c3b92560405160405180910390a45b505b836004600085815260200190815260200160002060006101000a81548173ffffffffffffffffffffffffffffffffffffffff021916908373ffffffffffffffffffffffffffffffffffffffff16021790555050505050565b600080611f9484611d86565b9050600073ffffffffffffffffffffffffffffffffffffffff168373ffffffffffffffffffffffffffffffffffffffff1614611fd657611fd5818486612456565b5b600073ffffffffffffffffffffffffffffffffffffffff168173ffffffffffffffffffffffffffffffffffffffff161461206757612018600085600080611dc3565b6001600360008373ffffffffffffffffffffffffffffffffffffffff1673ffffffffffffffffffffffffffffffffffffffff168152602001908152602001600020600082825403925050819055505b600073ffffffffffffffffffffffffffffffffffffffff168573ffffffffffffffffffffffffffffffffffffffff16146120ea576001600360008773ffffffffffffffffffffffffffffffffffffffff1673ffffffffffffffffffffffffffffffffffffffff168152602001908152602001600020600082825401925050819055505b846002600086815260200190815260200160002060006101000a81548173ffffffffffffffffffffffffffffffffffffffff021916908373ffffffffffffffffffffffffffffffffffffffff160217905550838573ffffffffffffffffffffffffffffffffffffffff168273ffffffffffffffffffffffffffffffffffffffff167fddf252ad1be2c89b69c2b068fc378daa952ba7f163c4a11628f55a4df523b3ef60405160405180910390a4809150509392505050565b6008805490506009600083815260200190815260200160002081905550600881908060018154018082558091505060019003906000526020600020016000909190919091505550565b60006121f683610c18565b90506000600760008481526020019081526020016000205490506000600660008673ffffffffffffffffffffffffffffffffffffffff1673ffffffffffffffffffffffffffffffffffffffff16815260200190815260200160002090508282146122a25760008160008581526020019081526020016000205490508082600085815260200190815260200160002081905550826007600083815260200190815260200160002081905550505b6007600085815260200190815260200160002060009055806000848152602001908152602001600020600090555050505050565b600060016008805490506122ea9190613114565b905060006009600084815260200190815260200160002054905060006008838154811061231a57612319613148565b5b90600052602060002001549050806008838154811061233c5761233b613148565b5b90600052602060002001819055508160096000838152602001908152602001600020819055506009600085815260200190815260200160002060009055600880548061238b5761238a61372c565b5b6001900381819060005260206000200160009055905550505050565b600060016123b484610c18565b6123be9190613114565b905081600660008573ffffffffffffffffffffffffffffffffffffffff1673ffffffffffffffffffffffffffffffffffffffff168152602001908152602001600020600083815260200190815260200160002081905550806007600084815260200190815260200160002081905550505050565b61243c838361251a565b612451612447611737565b6000858585611ab1565b505050565b612461838383612613565b61251557600073ffffffffffffffffffffffffffffffffffffffff168373ffffffffffffffffffffffffffffffffffffffff16036124d657806040517f7e2732890000000000000000000000000000000000000000000000000000000081526004016124cd9190612bd8565b60405180910390fd5b81816040517f177e802f00000000000000000000000000000000000000000000000000000000815260040161250c9291906131f6565b60405180910390fd5b505050565b600073ffffffffffffffffffffffffffffffffffffffff168273ffffffffffffffffffffffffffffffffffffffff160361258c5760006040517f64a0ae920000000000000000000000000000000000000000000000000000000081526004016125839190612979565b60405180910390fd5b600061259a8383600061175f565b9050600073ffffffffffffffffffffffffffffffffffffffff168173ffffffffffffffffffffffffffffffffffffffff161461260e5760006040517f73c6ac6e0000000000000000000000000000000000000000000000000000000081526004016126059190612979565b60405180910390fd5b505050565b60008073ffffffffffffffffffffffffffffffffffffffff168373ffffffffffffffffffffffffffffffffffffffff16141580156126cb57508273ffffffffffffffffffffffffffffffffffffffff168473ffffffffffffffffffffffffffffffffffffffff16148061268c575061268b8484611308565b5b806126ca57508273ffffffffffffffffffffffffffffffffffffffff166126b2836116fa565b73ffffffffffffffffffffffffffffffffffffffff16145b5b90509392505050565b604051806060016040528060008152602001606081526020016000151581525090565b508054612703906130b4565b6000825580601f106127155750612734565b601f0160209004906000526020600020908101906127339190612737565b5b50565b5b80821115612750576000816000905550600101612738565b5090565b6000604051905090565b600080fd5b600080fd5b60007fffffffff0000000000000000000000000000000000000000000000000000000082169050919050565b61279d81612768565b81146127a857600080fd5b50565b6000813590506127ba81612794565b92915050565b6000602082840312156127d6576127d561275e565b5b60006127e4848285016127ab565b91505092915050565b60008115159050919050565b612802816127ed565b82525050565b600060208201905061281d60008301846127f9565b92915050565b6000819050919050565b61283681612823565b811461284157600080fd5b50565b6000813590506128538161282d565b92915050565b60006020828403121561286f5761286e61275e565b5b600061287d84828501612844565b91505092915050565b600081519050919050565b600082825260208201905092915050565b60005b838110156128c05780820151818401526020810190506128a5565b60008484015250505050565b6000601f19601f8301169050919050565b60006128e882612886565b6128f28185612891565b93506129028185602086016128a2565b61290b816128cc565b840191505092915050565b6000602082019050818103600083015261293081846128dd565b905092915050565b600073ffffffffffffffffffffffffffffffffffffffff82169050919050565b600061296382612938565b9050919050565b61297381612958565b82525050565b600060208201905061298e600083018461296a565b92915050565b61299d81612958565b81146129a857600080fd5b50565b6000813590506129ba81612994565b92915050565b600080604083850312156129d7576129d661275e565b5b60006129e5858286016129ab565b92505060206129f685828601612844565b9150509250929050565b600060208284031215612a1657612a1561275e565b5b6000612a24848285016129ab565b91505092915050565b600081519050919050565b600082825260208201905092915050565b6000819050602082019050919050565b612a6281612823565b82525050565b600082825260208201905092915050565b6000612a8482612886565b612a8e8185612a68565b9350612a9e8185602086016128a2565b612aa7816128cc565b840191505092915050565b612abb816127ed565b82525050565b6000606083016000830151612ad96000860182612a59565b5060208301518482036020860152612af18282612a79565b9150506040830151612b066040860182612ab2565b508091505092915050565b6000612b1d8383612ac1565b905092915050565b6000602082019050919050565b6000612b3d82612a2d565b612b478185612a38565b935083602082028501612b5985612a49565b8060005b85811015612b955784840389528151612b768582612b11565b9450612b8183612b25565b925060208a01995050600181019050612b5d565b50829750879550505050505092915050565b60006020820190508181036000830152612bc18184612b32565b905092915050565b612bd281612823565b82525050565b6000602082019050612bed6000830184612bc9565b92915050565b600080600060608486031215612c0c57612c0b61275e565b5b6000612c1a868287016129ab565b9350506020612c2b868287016129ab565b9250506040612c3c86828701612844565b9150509250925092565b612c4f816127ed565b8114612c5a57600080fd5b50565b600081359050612c6c81612c46565b92915050565b60008060408385031215612c8957612c8861275e565b5b6000612c97858286016129ab565b9250506020612ca885828601612c5d565b9150509250929050565b6000606083016000830151612cca6000860182612a59565b5060208301518482036020860152612ce28282612a79565b9150506040830151612cf76040860182612ab2565b508091505092915050565b60006020820190508181036000830152612d1c8184612cb2565b905092915050565b600080fd5b600080fd5b7f4e487b7100000000000000000000000000000000000000000000000000000000600052604160045260246000fd5b612d66826128cc565b810181811067ffffffffffffffff82111715612d8557612d84612d2e565b5b80604052505050565b6000612d98612754565b9050612da48282612d5d565b919050565b600067ffffffffffffffff821115612dc457612dc3612d2e565b5b612dcd826128cc565b9050602081019050919050565b82818337600083830152505050565b6000612dfc612df784612da9565b612d8e565b905082815260208101848484011115612e1857612e17612d29565b5b612e23848285612dda565b509392505050565b600082601f830112612e4057612e3f612d24565b5b8135612e50848260208601612de9565b91505092915050565b60008060008060808587031215612e7357612e7261275e565b5b6000612e81878288016129ab565b9450506020612e92878288016129ab565b9350506040612ea387828801612844565b925050606085013567ffffffffffffffff811115612ec457612ec3612763565b5b612ed087828801612e2b565b91505092959194509250565b600067ffffffffffffffff821115612ef757612ef6612d2e565b5b612f00826128cc565b9050602081019050919050565b6000612f20612f1b84612edc565b612d8e565b905082815260208101848484011115612f3c57612f3b612d29565b5b612f47848285612dda565b509392505050565b600082601f830112612f6457612f63612d24565b5b8135612f74848260208601612f0d565b91505092915050565b60008060408385031215612f9457612f9361275e565b5b6000612fa2858286016129ab565b925050602083013567ffffffffffffffff811115612fc357612fc2612763565b5b612fcf85828601612f4f565b9150509250929050565b60008060408385031215612ff057612fef61275e565b5b6000612ffe858286016129ab565b925050602061300f858286016129ab565b9150509250929050565b7f546f6b656e20646f6573206e6f74206578697374000000000000000000000000600082015250565b600061304f601483612891565b915061305a82613019565b602082019050919050565b6000602082019050818103600083015261307e81613042565b9050919050565b7f4e487b7100000000000000000000000000000000000000000000000000000000600052602260045260246000fd5b600060028204905060018216806130cc57607f821691505b6020821081036130df576130de613085565b5b50919050565b7f4e487b7100000000000000000000000000000000000000000000000000000000600052601160045260246000fd5b600061311f82612823565b915061312a83612823565b9250828203905081811115613142576131416130e5565b5b92915050565b7f4e487b7100000000000000000000000000000000000000000000000000000000600052603260045260246000fd5b600061318282612823565b91507fffffffffffffffffffffffffffffffffffffffffffffffffffffffffffffffff82036131b4576131b36130e5565b5b600182019050919050565b60006060820190506131d4600083018661296a565b6131e16020830185612bc9565b6131ee604083018461296a565b949350505050565b600060408201905061320b600083018561296a565b6132186020830184612bc9565b9392505050565b7f496e76616c69642073747564656e742077616c6c657400000000000000000000600082015250565b6000613255601683612891565b91506132608261321f565b602082019050919050565b6000602082019050818103600083015261328481613248565b9050919050565b7f53747564656e7420616c7265616479206861732061206365727469666963617460008201527f6500000000000000000000000000000000000000000000000000000000000000602082015250565b60006132e7602183612891565b91506132f28261328b565b604082019050919050565b60006020820190508181036000830152613316816132da565b9050919050565b60008190508160005260206000209050919050565b60006020601f8301049050919050565b600082821b905092915050565b60006008830261337f7fffffffffffffffffffffffffffffffffffffffffffffffffffffffffffffffff82613342565b6133898683613342565b95508019841693508086168417925050509392505050565b6000819050919050565b60006133c66133c16133bc84612823565b6133a1565b612823565b9050919050565b6000819050919050565b6133e0836133ab565b6133f46133ec826133cd565b84845461334f565b825550505050565b600090565b6134096133fc565b6134148184846133d7565b505050565b5b818110156134385761342d600082613401565b60018101905061341a565b5050565b601f82111561347d5761344e8161331d565b61345784613332565b81016020851015613466578190505b61347a61347285613332565b830182613419565b50505b505050565b600082821c905092915050565b60006134a060001984600802613482565b1980831691505092915050565b60006134b9838361348f565b9150826002028217905092915050565b6134d282612886565b67ffffffffffffffff8111156134eb576134ea612d2e565b5b6134f582546130b4565b61350082828561343c565b600060209050601f8311600181146135335760008415613521578287015190505b61352b85826134ad565b865550613593565b601f1984166135418661331d565b60005b8281101561356957848901518255600182019150602085019450602081019050613544565b868310156135865784890151613582601f89168261348f565b8355505b6001600288020188555050505b505050505050565b7f55524920717565727920666f72206e6f6e6578697374656e7420746f6b656e00600082015250565b60006135d1601f83612891565b91506135dc8261359b565b602082019050919050565b60006020820190508181036000830152613600816135c4565b9050919050565b60008151905061361681612994565b92915050565b6000602082840312156136325761363161275e565b5b600061364084828501613607565b91505092915050565b600081519050919050565b600082825260208201905092915050565b600061367082613649565b61367a8185613654565b935061368a8185602086016128a2565b613693816128cc565b840191505092915050565b60006080820190506136b3600083018761296a565b6136c0602083018661296a565b6136cd6040830185612bc9565b81810360608301526136df8184613665565b905095945050505050565b6000815190506136f981612794565b92915050565b6000602082840312156137155761371461275e565b5b6000613723848285016136ea565b91505092915050565b7f4e487b7100000000000000000000000000000000000000000000000000000000600052603160045260246000fdfea26469706673582212208ea4f2091df7ae694421e32eb87e86e46f0be88b7cfd821f6b8c78cae9e050cb64736f6c63430008140033",
  "linkReferences": {},
  "deployedLinkReferences": {}
}