{
  "_format": "hh-sol-artifact-1",
  "contractName": "GradCertNFT",
  "sourceName": "contracts/GradCertNFT.sol",
  "abi": [
    {
      "inputs": [
        {
          "internalType": "address",
          "name": "initialOwner",
          "type": "address"
        }
      ],
      "stateMutability": "nonpayable",
      "type": "constructor"
    },
    {
      "inputs": [],
      "name": "ERC721EnumerableForbiddenBatchMint",
      "type": "error"
    },
    {
      "inputs": [
        {
          "internalType": "address",
          "name": "sender",
          "type": "address"
        },
        {
          "internalType": "uint256",
          "name": "tokenId",
          "type": "uint256"
        },
        {
          "internalType": "address",
          "name": "owner",
          "type": "address"
        }
      ],
      "name": "ERC721IncorrectOwner",
      "type": "error"
    },
    {
      "inputs": [
        {
          "internalType": "address",
          "name": "operator",
          "type": "address"
        },
        {
          "internalType": "uint256",
          "name": "tokenId",
          "type": "uint256"
        }
      ],
      "name": "ERC721InsufficientApproval",
      "type": "error"
    },
    {
      "inputs": [
        {
          "internalType": "address",
          "name": "approver",
          "type": "address"
        }
      ],
      "name": "ERC721InvalidApprover",
      "type": "error"
    },
    {
      "inputs": [
        {
          "internalType": "address",
          "name": "operator",
          "type": "address"
        }
      ],
      "name": "ERC721InvalidOperator",
      "type": "error"
    },
    {
      "inputs": [
        {
          "internalType": "address",
          "name": "owner",
          "type": "address"
        }
      ],
      "name": "ERC721InvalidOwner",
      "type": "error"
    },
    {
      "inputs": [
        {
          "internalType": "address",
          "name": "receiver",
          "type": "address"
        }
      ],
      "name": "ERC721InvalidReceiver",
      "type": "error"
    },
    {
      "inputs": [
        {
          "internalType": "address",
          "name": "sender",
          "type": "address"
        }
      ],
      "name": "ERC721InvalidSender",
      "type": "error"
    },
    {
      "inputs": [
        {
          "internalType": "uint256",
          "name": "tokenId",
          "type": "uint256"
        }
      ],
      "name": "ERC721NonexistentToken",
      "type": "error"
    },
    {
      "inputs": [
        {
          "internalType": "address",
          "name": "owner",
          "type": "address"
        },
        {
          "internalType": "uint256",
          "name": "index",
          "type": "uint256"
        }
      ],
      "name": "ERC721OutOfBoundsIndex",
      "type": "error"
    },
    {
      "inputs": [
        {
          "internalType": "address",
          "name": "owner",
          "type": "address"
        }
      ],
      "name": "OwnableInvalidOwner",
      "type": "error"
    },
    {
      "inputs": [
        {
          "internalType": "address",
          "name": "account",
          "type": "address"
        }
      ],
      "name": "OwnableUnauthorizedAccount",
      "type": "error"
    },
    {
      "anonymous": false,
      "inputs": [
        {
          "indexed": true,
          "internalType": "address",
          "name": "owner",
          "type": "address"
        },
        {
          "indexed": true,
          "internalType": "address",
          "name": "approved",
          "type": "address"
        },
        {
          "indexed": true,
          "internalType": "uint256",
          "name": "tokenId",
          "type": "uint256"
        }
      ],
      "name": "Approval",
      "type": "event"
    },
    {
      "anonymous": false,
      "inputs": [
        {
          "indexed": true,
          "internalType": "address",
          "name": "owner",
          "type": "address"
        },
        {
          "indexed": true,
          "internalType": "address",
          "name": "operator",
          "type": "address"
        },
        {
          "indexed": false,
          "internalType": "bool",
          "name": "approved",
          "type": "bool"
        }
      ],
      "name": "ApprovalForAll",
      "type": "event"
    },
    {
      "anonymous": false,
      "inputs": [
        {
          "indexed": true,
          "internalType": "address",
          "name": "to",
          "type": "address"
        },
        {
          "indexed": true,
          "internalType": "uint256",
          "name": "tokenId",
          "type": "uint256"
        },
        {
          "indexed": false,
          "internalType": "string",
          "name": "metadataURI",
          "type": "string"
        }
      ],
      "name": "CertificateIssued",
      "type": "event"
    },
    {
      "anonymous": false,
      "inputs": [
        {
          "indexed": true,
          "internalType": "uint256",
          "name": "tokenId",
          "type": "uint256"
        }
      ],
      "name": "CertificateRevoked",
      "type": "event"
    },
    {
      "anonymous": false,
      "inputs": [
        {
          "indexed": true,
          "internalType": "address",
          "name": "previousOwner",
          "type": "address"
        },
        {
          "indexed": true,
          "internalType": "address",
          "name": "newOwner",
          "type": "address"
        }
      ],
      "name": "OwnershipTransferred",
      "type": "event"
    },
    {
      "anonymous": false,
      "inputs": [
        {
          "indexed": true,
          "internalType": "address",
          "name": "from",
          "type": "address"
        },
        {
          "indexed": true,
          "internalType": "address",
          "name": "to",
          "type": "address"
        },
        {
          "indexed": true,
          "internalType": "uint256",
          "name": "tokenId",
          "type": "uint256"
        }
      ],
      "name": "Transfer",
      "type": "event"
    },
    {
      "inputs": [
        {
          "internalType": "address",
          "name": "to",
          "type": "address"
        },
        {
          "internalType": "uint256",
          "name": "tokenId",
          "type": "uint256"
        }
      ],
      "name": "approve",
      "outputs": [],
      "stateMutability": "nonpayable",
      "type": "function"
    },
    {
      "inputs": [
        {
          "internalType": "address",
          "name": "owner",
          "type": "address"
        }
      ],
      "name": "balanceOf",
      "outputs": [
        {
          "internalType": "uint256",
          "name": "",
          "type": "uint256"
        }
      ],
      "stateMutability": "view",
      "type": "function"
    },
    {
      "inputs": [],
      "name": "getAllCertificates",
      "outputs": [
        {
          "components": [
            {
              "internalType": "uint256",
              "name": "tokenId",
              "type": "uint256"
            },
            {
              "internalType": "string",
              "name": "metadataURI",
              "type": "string"
            },
            {
              "internalType": "bool",
              "name": "isValid",
              "type": "bool"
            }
          ],
          "internalType": "struct GradCertNFT.Certificate[]",
          "name": "",
          "type": "tuple[]"
        }
      ],
      "stateMutability": "view",
      "type": "function"
    },
    {
      "inputs": [
        {
          "internalType": "uint256",
          "name": "tokenId",
          "type": "uint256"
        }
      ],
      "name": "getApproved",
      "outputs": [
        {
          "internalType": "address",
          "name": "",
          "type": "address"
        }
      ],
      "stateMutability": "view",
      "type": "function"
    },
    {
      "inputs": [
        {
          "internalType": "address",
          "name": "owner",
          "type": "address"
        }
      ],
      "name": "getOwnerCertificates",
      "outputs": [
        {
          "components": [
            {
              "internalType": "uint256",
              "name": "tokenId",
              "type": "uint256"
            },
            {
              "internalType": "string",
              "name": "metadataURI",
              "type": "string"
            },
            {
              "internalType": "bool",
              "name": "isValid",
              "type": "bool"
            }
          ],
          "internalType": "struct GradCertNFT.Certificate[]",
          "name": "",
          "type": "tuple[]"
        }
      ],
      "stateMutability": "view",
      "type": "function"
    },
    {
      "inputs": [
        {
          "internalType": "address",
          "name": "",
          "type": "address"
        }
      ],
      "name": "hasCertificate",
      "outputs": [
        {
          "internalType": "bool",
          "name": "",
          "type": "bool"
        }
      ],
      "stateMutability": "view",
      "type": "function"
    },
    {
      "inputs": [
        {
          "internalType": "address",
          "name": "owner",
          "type": "address"
        },
        {
          "internalType": "address",
          "name": "operator",
          "type": "address"
        }
      ],
      "name": "isApprovedForAll",
      "outputs": [
        {
          "internalType": "bool",
          "name": "",
          "type": "bool"
        }
      ],
      "stateMutability": "view",
      "type": "function"
    },
    {
      "inputs": [
        {
          "internalType": "uint256",
          "name": "tokenId",
          "type": "uint256"
        }
      ],
      "name": "isValidCertificate",
      "outputs": [
        {
          "internalType": "bool",
          "name": "",
          "type": "bool"
        }
      ],
      "stateMutability": "view",
      "type": "function"
    },
    {
      "inputs": [
        {
          "internalType": "address",
          "name": "to",
          "type": "address"
        },
        {
          "internalType": "string",
          "name": "metadataURI",
          "type": "string"
        }
      ],
      "name": "issueDegree",
      "outputs": [
        {
          "internalType": "uint256",
          "name": "",
          "type": "uint256"
        }
      ],
      "stateMutability": "nonpayable",
      "type": "function"
    },
    {
      "inputs": [],
      "name": "name",
      "outputs": [
        {
          "internalType": "string",
          "name": "",
          "type": "string"
        }
      ],
      "stateMutability": "view",
      "type": "function"
    },
    {
      "inputs": [],
      "name": "owner",
      "outputs": [
        {
          "internalType": "address",
          "name": "",
          "type": "address"
        }
      ],
      "stateMutability": "view",
      "type": "function"
    },
    {
      "inputs": [
        {
          "internalType": "uint256",
          "name": "tokenId",
          "type": "uint256"
        }
      ],
      "name": "ownerOf",
      "outputs": [
        {
          "internalType": "address",
          "name": "",
          "type": "address"
        }
      ],
      "stateMutability": "view",
      "type": "function"
    },
    {
      "inputs": [],
      "name": "renounceOwnership",
      "outputs": [],
      "stateMutability": "nonpayable",
      "type": "function"
    },
    {
      "inputs": [
        {
          "internalType": "uint256",
          "name": "tokenId",
          "type": "uint256"
        }
      ],
      "name": "revokeCertificate",
      "outputs": [],
      "stateMutability": "nonpayable",
      "type": "function"
    },
    {
      "inputs": [
        {
          "internalType": "address",
          "name": "from",
          "type": "address"
        },
        {
          "internalType": "address",
          "name": "to",
          "type": "address"
        },
        {
          "internalType": "uint256",
          "name": "tokenId",
          "type": "uint256"
        }
      ],
      "name": "safeTransferFrom",
      "outputs": [],
      "stateMutability": "nonpayable",
      "type": "function"
    },
    {
      "inputs": [
        {
          "internalType": "address",
          "name": "from",
          "type": "address"
        },
        {
          "internalType": "address",
          "name": "to",
          "type": "address"
        },
        {
          "internalType": "uint256",
          "name": "tokenId",
          "type": "uint256"
        },
        {
          "internalType": "bytes",
          "name": "data",
          "type": "bytes"
        }
      ],
      "name": "safeTransferFrom",
      "outputs": [],
      "stateMutability": "nonpayable",
      "type": "function"
    },
    {
      "inputs": [
        {
          "internalType": "address",
          "name": "operator",
          "type": "address"
        },
        {
          "internalType": "bool",
          "name": "approved",
          "type": "bool"
        }
      ],
      "name": "setApprovalForAll",
      "outputs": [],
      "stateMutability": "nonpayable",
      "type": "function"
    },
    {
      "inputs": [
        {
          "internalType": "bytes4",
          "name": "interfaceId",
          "type": "bytes4"
        }
      ],
      "name": "supportsInterface",
      "outputs": [
        {
          "internalType": "bool",
          "name": "",
          "type": "bool"
        }
      ],
      "stateMutability": "view",
      "type": "function"
    },
    {
      "inputs": [],
      "name": "symbol",
      "outputs": [
        {
          "internalType": "string",
          "name": "",
          "type": "string"
        }
      ],
      "stateMutability": "view",
      "type": "function"
    },
    {
      "inputs": [
        {
          "internalType": "uint256",
          "name": "index",
          "type": "uint256"
        }
      ],
      "name": "tokenByIndex",
      "outputs": [
        {
          "internalType": "uint256",
          "name": "",
          "type": "uint256"
        }
      ],
      "stateMutability": "view",
      "type": "function"
    },
    {
      "inputs": [
        {
          "internalType": "address",
          "name": "owner",
          "type": "address"
        },
        {
          "internalType": "uint256",
          "name": "index",
          "type": "uint256"
        }
      ],
      "name": "tokenOfOwnerByIndex",
      "outputs": [
        {
          "internalType": "uint256",
          "name": "",
          "type": "uint256"
        }
      ],
      "stateMutability": "view",
      "type": "function"
    },
    {
      "inputs": [
        {
          "internalType": "uint256",
          "name": "tokenId",
          "type": "uint256"
        }
      ],
      "name": "tokenURI",
      "outputs": [
        {
          "internalType": "string",
          "name": "",
          "type": "string"
        }
      ],
      "stateMutability": "view",
      "type": "function"
    },
    {
      "inputs": [],
      "name": "totalSupply",
      "outputs": [
        {
          "internalType": "uint256",
          "name": "",
          "type": "uint256"
        }
      ],
      "stateMutability": "view",
      "type": "function"
    },
    {
      "inputs": [
        {
          "internalType": "address",
          "name": "from",
          "type": "address"
        },
        {
          "internalType": "address",
          "name": "to",
          "type": "address"
        },
        {
          "internalType": "uint256",
          "name": "tokenId",
          "type": "uint256"
        }
      ],
      "name": "transferFrom",
      "outputs": [],
      "stateMutability": "nonpayable",
      "type": "function"
    },
    {
      "inputs": [
        {
          "internalType": "address",
          "name": "newOwner",
          "type": "address"
        }
      ],
      "name": "transferOwnership",
      "outputs": [],
      "stateMutability": "nonpayable",
      "type": "function"
    },
    {
      "inputs": [
        {
          "internalType": "uint256",
          "name": "",
          "type": "uint256"
        }
      ],
      "name": "validCertificates",
      "outputs": [
        {
          "internalType": "bool",
          "name": "",
          "type": "bool"
        }
      ],
      "stateMutability": "view",
      "type": "function"
    }
  ],
  "bytecode": "0x60806040523480156200001157600080fd5b5060405162003bec38038062003bec833981810160405281019062000037919062000288565b806040518060400160405280601081526020017f556e6976657273697479446567726565000000000000000000000000000000008152506040518060400160405280600381526020017f55444300000000000000000000000000000000000000000000000000000000008152508160009081620000b5919062000534565b508060019081620000c7919062000534565b505050600073ffffffffffffffffffffffffffffffffffffffff168173ffffffffffffffffffffffffffffffffffffffff16036200013f5760006040517f1e4fbdf70000000000000000000000000000000000000000000000000000000081526004016200013691906200062c565b60405180910390fd5b62000150816200015860201b60201c565b505062000649565b6000600a60009054906101000a900473ffffffffffffffffffffffffffffffffffffffff16905081600a60006101000a81548173ffffffffffffffffffffffffffffffffffffffff021916908373ffffffffffffffffffffffffffffffffffffffff1602179055508173ffffffffffffffffffffffffffffffffffffffff168173ffffffffffffffffffffffffffffffffffffffff167f8be0079c531659141344cd1fd0a4f28419497f9722a3daafe3b4186f6b6457e060405160405180910390a35050565b600080fd5b600073ffffffffffffffffffffffffffffffffffffffff82169050919050565b6000620002508262000223565b9050919050565b620002628162000243565b81146200026e57600080fd5b50565b600081519050620002828162000257565b92915050565b600060208284031215620002a157620002a06200021e565b5b6000620002b18482850162000271565b91505092915050565b600081519050919050565b7f4e487b7100000000000000000000000000000000000000000000000000000000600052604160045260246000fd5b7f4e487b7100000000000000000000000000000000000000000000000000000000600052602260045260246000fd5b600060028204905060018216806200033c57607f821691505b602082108103620003525762000351620002f4565b5b50919050565b60008190508160005260206000209050919050565b60006020601f8301049050919050565b600082821b905092915050565b600060088302620003bc7fffffffffffffffffffffffffffffffffffffffffffffffffffffffffffffffff826200037d565b620003c886836200037d565b95508019841693508086168417925050509392505050565b6000819050919050565b6000819050919050565b6000620004156200040f6200040984620003e0565b620003ea565b620003e0565b9050919050565b6000819050919050565b6200043183620003f4565b6200044962000440826200041c565b8484546200038a565b825550505050565b600090565b6200046062000451565b6200046d81848462000426565b505050565b5b8181101562000495576200048960008262000456565b60018101905062000473565b5050565b601f821115620004e457620004ae8162000358565b620004b9846200036d565b81016020851015620004c9578190505b620004e1620004d8856200036d565b83018262000472565b50505b505050565b600082821c905092915050565b60006200050960001984600802620004e9565b1980831691505092915050565b6000620005248383620004f6565b9150826002028217905092915050565b6200053f82620002ba565b67ffffffffffffffff8111156200055b576200055a620002c5565b5b62000567825462000323565b6200057482828562000499565b600060209050601f831160018114620005ac576000841562000597578287015190505b620005a3858262000516565b86555062000613565b601f198416620005bc8662000358565b60005b82811015620005e657848901518255600182019150602085019450602081019050620005bf565b8683101562000606578489015162000602601f891682620004f6565b8355505b6001600288020188555050505b505050505050565b620006268162000243565b82525050565b60006020820190506200064360008301846200061b565b92915050565b61359380620006596000396000f3fe608060405234801561001057600080fd5b506004361061018e5760003560e01c80636352211e116100de578063a22cb46511610097578063c542f2ac11610071578063c542f2ac146104bb578063c87b56dd146104eb578063e985e9c51461051b578063f2fde38b1461054b5761018e565b8063a22cb46514610453578063b88d4fde1461046f578063c4cdfe1e1461048b5761018e565b80636352211e1461037d57806370a08231146103ad578063715018a6146103dd57806379b08c5b146103e75780638da5cb5b1461041757806395d89b41146104355761018e565b806313fcfe801161014b578063255883961161012557806325588396146102d15780632f745c591461030157806342842e0e146103315780634f6ccce71461034d5761018e565b806313fcfe801461027957806318160ddd1461029757806323b872dd146102b55761018e565b806301ffc9a71461019357806306f5497e146101c357806306fdde03146101df578063081812fc146101fd578063095ea7b31461022d5780630c02199b14610249575b600080fd5b6101ad60048036038101906101a89190612634565b610567565b6040516101ba919061267c565b60405180910390f35b6101dd60048036038101906101d891906126cd565b6105e1565b005b6101e76106fc565b6040516101f4919061278a565b60405180910390f35b610217600480360381019061021291906126cd565b61078e565b60405161022491906127ed565b60405180910390f35b61024760048036038101906102429190612834565b6107aa565b005b610263600480360381019061025e9190612874565b6107c0565b604051610270919061267c565b60405180910390f35b6102816107e0565b60405161028e9190612a1b565b60405180910390f35b61029f6108f8565b6040516102ac9190612a4c565b60405180910390f35b6102cf60048036038101906102ca9190612a67565b610905565b005b6102eb60048036038101906102e691906126cd565b610a07565b6040516102f8919061267c565b60405180910390f35b61031b60048036038101906103169190612834565b610a31565b6040516103289190612a4c565b60405180910390f35b61034b60048036038101906103469190612a67565b610ada565b005b610367600480360381019061036291906126cd565b610afa565b6040516103749190612a4c565b60405180910390f35b610397600480360381019061039291906126cd565b610b70565b6040516103a491906127ed565b60405180910390f35b6103c760048036038101906103c29190612874565b610b82565b6040516103d49190612a4c565b60405180910390f35b6103e5610c3c565b005b61040160048036038101906103fc9190612874565b610c50565b60405161040e9190612a1b565b60405180910390f35b61041f610d52565b60405161042c91906127ed565b60405180910390f35b61043d610d7c565b60405161044a919061278a565b60405180910390f35b61046d60048036038101906104689190612ae6565b610e0e565b005b61048960048036038101906104849190612c5b565b610e24565b005b6104a560048036038101906104a091906126cd565b610e49565b6040516104b2919061267c565b60405180910390f35b6104d560048036038101906104d09190612d7f565b610e69565b6040516104e29190612a4c565b60405180910390f35b610505600480360381019061050091906126cd565b61108f565b604051610512919061278a565b60405180910390f35b61053560048036038101906105309190612ddb565b61117c565b604051610542919061267c565b60405180910390f35b61056560048036038101906105609190612874565b611210565b005b60007f780e9d63000000000000000000000000000000000000000000000000000000007bffffffffffffffffffffffffffffffffffffffffffffffffffffffff1916827bffffffffffffffffffffffffffffffffffffffffffffffffffffffff191614806105da57506105d982611296565b5b9050919050565b6105e9611378565b807fefa6c5f47ac2523bb4db18032377bf7fdce0fa9d86eddcae1ca9bba38be615d760405160405180910390a261061f816113ff565b61065e576040517f08c379a000000000000000000000000000000000000000000000000000000000815260040161065590612e67565b60405180910390fd5b600061066982610b70565b90506000600e60008373ffffffffffffffffffffffffffffffffffffffff1673ffffffffffffffffffffffffffffffffffffffff16815260200190815260200160002060006101000a81548160ff0219169083151502179055506000600d600084815260200190815260200160002060006101000a81548160ff0219169083151502179055506106f8826114bb565b5050565b60606000805461070b90612eb6565b80601f016020809104026020016040519081016040528092919081815260200182805461073790612eb6565b80156107845780601f1061075957610100808354040283529160200191610784565b820191906000526020600020905b81548152906001019060200180831161076757829003601f168201915b5050505050905090565b6000610799826114e6565b506107a38261156e565b9050919050565b6107bc82826107b76115ab565b6115b3565b5050565b600e6020528060005260406000206000915054906101000a900460ff1681565b60606107ea611378565b60006107f6600c6115c5565b905060008167ffffffffffffffff81111561081457610813612b30565b5b60405190808252806020026020018201604052801561084d57816020015b61083a612548565b8152602001906001900390816108325790505b5090506000600190505b8281116108ef57610867816113ff565b156108dc5760405180606001604052808281526020016108868361108f565b8152602001600d600084815260200190815260200160002060009054906101000a900460ff161515815250826001836108bf9190612f16565b815181106108d0576108cf612f4a565b5b60200260200101819052505b80806108e790612f79565b915050610857565b50809250505090565b6000600880549050905090565b600073ffffffffffffffffffffffffffffffffffffffff168273ffffffffffffffffffffffffffffffffffffffff16036109775760006040517f64a0ae9200000000000000000000000000000000000000000000000000000000815260040161096e91906127ed565b60405180910390fd5b600061098b83836109866115ab565b6115d3565b90508373ffffffffffffffffffffffffffffffffffffffff168173ffffffffffffffffffffffffffffffffffffffff1614610a01578382826040517f64283d7b0000000000000000000000000000000000000000000000000000000081526004016109f893929190612fc1565b60405180910390fd5b50505050565b6000600d600083815260200190815260200160002060009054906101000a900460ff169050919050565b6000610a3c83610b82565b8210610a815782826040517fa57d13dc000000000000000000000000000000000000000000000000000000008152600401610a78929190612ff8565b60405180910390fd5b600660008473ffffffffffffffffffffffffffffffffffffffff1673ffffffffffffffffffffffffffffffffffffffff168152602001908152602001600020600083815260200190815260200160002054905092915050565b610af583838360405180602001604052806000815250610e24565b505050565b6000610b046108f8565b8210610b4a576000826040517fa57d13dc000000000000000000000000000000000000000000000000000000008152600401610b41929190612ff8565b60405180910390fd5b60088281548110610b5e57610b5d612f4a565b5b90600052602060002001549050919050565b6000610b7b826114e6565b9050919050565b60008073ffffffffffffffffffffffffffffffffffffffff168273ffffffffffffffffffffffffffffffffffffffff1603610bf55760006040517f89c62b64000000000000000000000000000000000000000000000000000000008152600401610bec91906127ed565b60405180910390fd5b600360008373ffffffffffffffffffffffffffffffffffffffff1673ffffffffffffffffffffffffffffffffffffffff168152602001908152602001600020549050919050565b610c44611378565b610c4e60006116f0565b565b60606000610c5d83610b82565b905060008167ffffffffffffffff811115610c7b57610c7a612b30565b5b604051908082528060200260200182016040528015610cb457816020015b610ca1612548565b815260200190600190039081610c995790505b50905060005b82811015610d47576000610cce8683610a31565b90506040518060600160405280828152602001610cea8361108f565b8152602001600d600084815260200190815260200160002060009054906101000a900460ff161515815250838381518110610d2857610d27612f4a565b5b6020026020010181905250508080610d3f90612f79565b915050610cba565b508092505050919050565b6000600a60009054906101000a900473ffffffffffffffffffffffffffffffffffffffff16905090565b606060018054610d8b90612eb6565b80601f0160208091040260200160405190810160405280929190818152602001828054610db790612eb6565b8015610e045780601f10610dd957610100808354040283529160200191610e04565b820191906000526020600020905b815481529060010190602001808311610de757829003601f168201915b5050505050905090565b610e20610e196115ab565b83836117b6565b5050565b610e2f848484610905565b610e43610e3a6115ab565b85858585611925565b50505050565b600d6020528060005260406000206000915054906101000a900460ff1681565b6000610e73611378565b600073ffffffffffffffffffffffffffffffffffffffff168373ffffffffffffffffffffffffffffffffffffffff1603610ee2576040517f08c379a0000000000000000000000000000000000000000000000000000000008152600401610ed99061306d565b60405180910390fd5b600e60008473ffffffffffffffffffffffffffffffffffffffff1673ffffffffffffffffffffffffffffffffffffffff16815260200190815260200160002060009054906101000a900460ff1615610f6f576040517f08c379a0000000000000000000000000000000000000000000000000000000008152600401610f66906130ff565b60405180910390fd5b610f79600c611ad6565b6000610f85600c6115c5565b9050610f918482611aec565b82600b60008381526020019081526020016000209081610fb191906132cb565b506001600d600083815260200190815260200160002060006101000a81548160ff0219169083151502179055506001600e60008673ffffffffffffffffffffffffffffffffffffffff1673ffffffffffffffffffffffffffffffffffffffff16815260200190815260200160002060006101000a81548160ff021916908315150217905550808473ffffffffffffffffffffffffffffffffffffffff167f29f8f795343069eda4c1b8173361b78c760d0554fa9a50cd4506019c25183cda8560405161107d919061278a565b60405180910390a38091505092915050565b606061109a826113ff565b6110d9576040517f08c379a00000000000000000000000000000000000000000000000000000000081526004016110d0906133e9565b60405180910390fd5b600b600083815260200190815260200160002080546110f790612eb6565b80601f016020809104026020016040519081016040528092919081815260200182805461112390612eb6565b80156111705780601f1061114557610100808354040283529160200191611170565b820191906000526020600020905b81548152906001019060200180831161115357829003601f168201915b50505050509050919050565b6000600560008473ffffffffffffffffffffffffffffffffffffffff1673ffffffffffffffffffffffffffffffffffffffff16815260200190815260200160002060008373ffffffffffffffffffffffffffffffffffffffff1673ffffffffffffffffffffffffffffffffffffffff16815260200190815260200160002060009054906101000a900460ff16905092915050565b611218611378565b600073ffffffffffffffffffffffffffffffffffffffff168173ffffffffffffffffffffffffffffffffffffffff160361128a5760006040517f1e4fbdf700000000000000000000000000000000000000000000000000000000815260040161128191906127ed565b60405180910390fd5b611293816116f0565b50565b60007f80ac58cd000000000000000000000000000000000000000000000000000000007bffffffffffffffffffffffffffffffffffffffffffffffffffffffff1916827bffffffffffffffffffffffffffffffffffffffffffffffffffffffff1916148061136157507f5b5e139f000000000000000000000000000000000000000000000000000000007bffffffffffffffffffffffffffffffffffffffffffffffffffffffff1916827bffffffffffffffffffffffffffffffffffffffffffffffffffffffff1916145b80611371575061137082611b0a565b5b9050919050565b6113806115ab565b73ffffffffffffffffffffffffffffffffffffffff1661139e610d52565b73ffffffffffffffffffffffffffffffffffffffff16146113fd576113c16115ab565b6040517f118cdaa70000000000000000000000000000000000000000000000000000000081526004016113f491906127ed565b60405180910390fd5b565b60003073ffffffffffffffffffffffffffffffffffffffff16636352211e836040518263ffffffff1660e01b815260040161143a9190612a4c565b602060405180830381865afa92505050801561147457506040513d601f19601f82011682018060405250810190611471919061341e565b60015b61148157600090506114b6565b600073ffffffffffffffffffffffffffffffffffffffff168173ffffffffffffffffffffffffffffffffffffffff1614159150505b919050565b6114c481611b74565b600b600082815260200190815260200160002060006114e3919061256b565b50565b6000806114f283611bfa565b9050600073ffffffffffffffffffffffffffffffffffffffff168173ffffffffffffffffffffffffffffffffffffffff160361156557826040517f7e27328900000000000000000000000000000000000000000000000000000000815260040161155c9190612a4c565b60405180910390fd5b80915050919050565b60006004600083815260200190815260200160002060009054906101000a900473ffffffffffffffffffffffffffffffffffffffff169050919050565b600033905090565b6115c08383836001611c37565b505050565b600081600001549050919050565b6000806115e1858585611dfc565b9050600073ffffffffffffffffffffffffffffffffffffffff168173ffffffffffffffffffffffffffffffffffffffff16036116255761162084612016565b611664565b8473ffffffffffffffffffffffffffffffffffffffff168173ffffffffffffffffffffffffffffffffffffffff161461166357611662818561205f565b5b5b600073ffffffffffffffffffffffffffffffffffffffff168573ffffffffffffffffffffffffffffffffffffffff16036116a6576116a18461214a565b6116e5565b8473ffffffffffffffffffffffffffffffffffffffff168173ffffffffffffffffffffffffffffffffffffffff16146116e4576116e3858561221b565b5b5b809150509392505050565b6000600a60009054906101000a900473ffffffffffffffffffffffffffffffffffffffff16905081600a60006101000a81548173ffffffffffffffffffffffffffffffffffffffff021916908373ffffffffffffffffffffffffffffffffffffffff1602179055508173ffffffffffffffffffffffffffffffffffffffff168173ffffffffffffffffffffffffffffffffffffffff167f8be0079c531659141344cd1fd0a4f28419497f9722a3daafe3b4186f6b6457e060405160405180910390a35050565b600073ffffffffffffffffffffffffffffffffffffffff168273ffffffffffffffffffffffffffffffffffffffff160361182757816040517f5b08ba1800000000000000000000000000000000000000000000000000000000815260040161181e91906127ed565b60405180910390fd5b80600560008573ffffffffffffffffffffffffffffffffffffffff1673ffffffffffffffffffffffffffffffffffffffff16815260200190815260200160002060008473ffffffffffffffffffffffffffffffffffffffff1673ffffffffffffffffffffffffffffffffffffffff16815260200190815260200160002060006101000a81548160ff0219169083151502179055508173ffffffffffffffffffffffffffffffffffffffff168373ffffffffffffffffffffffffffffffffffffffff167f17307eab39ab6107e8899845ad3d59bd9653f200f220920489ca2b5937696c3183604051611918919061267c565b60405180910390a3505050565b60008373ffffffffffffffffffffffffffffffffffffffff163b1115611acf578273ffffffffffffffffffffffffffffffffffffffff1663150b7a02868685856040518563ffffffff1660e01b815260040161198494939291906134a0565b6020604051808303816000875af19250505080156119c057506040513d601f19601f820116820180604052508101906119bd9190613501565b60015b611a44573d80600081146119f0576040519150601f19603f3d011682016040523d82523d6000602084013e6119f5565b606091505b506000815103611a3c57836040517f64a0ae92000000000000000000000000000000000000000000000000000000008152600401611a3391906127ed565b60405180910390fd5b805181602001fd5b63150b7a0260e01b7bffffffffffffffffffffffffffffffffffffffffffffffffffffffff1916817bffffffffffffffffffffffffffffffffffffffffffffffffffffffff191614611acd57836040517f64a0ae92000000000000000000000000000000000000000000000000000000008152600401611ac491906127ed565b60405180910390fd5b505b5050505050565b6001816000016000828254019250508190555050565b611b068282604051806020016040528060008152506122a6565b5050565b60007f01ffc9a7000000000000000000000000000000000000000000000000000000007bffffffffffffffffffffffffffffffffffffffffffffffffffffffff1916827bffffffffffffffffffffffffffffffffffffffffffffffffffffffff1916149050919050565b6000611b8360008360006115d3565b9050600073ffffffffffffffffffffffffffffffffffffffff168173ffffffffffffffffffffffffffffffffffffffff1603611bf657816040517f7e273289000000000000000000000000000000000000000000000000000000008152600401611bed9190612a4c565b60405180910390fd5b5050565b60006002600083815260200190815260200160002060009054906101000a900473ffffffffffffffffffffffffffffffffffffffff169050919050565b8080611c705750600073ffffffffffffffffffffffffffffffffffffffff168273ffffffffffffffffffffffffffffffffffffffff1614155b15611da4576000611c80846114e6565b9050600073ffffffffffffffffffffffffffffffffffffffff168373ffffffffffffffffffffffffffffffffffffffff1614158015611ceb57508273ffffffffffffffffffffffffffffffffffffffff168173ffffffffffffffffffffffffffffffffffffffff1614155b8015611cfe5750611cfc818461117c565b155b15611d4057826040517fa9fbf51f000000000000000000000000000000000000000000000000000000008152600401611d3791906127ed565b60405180910390fd5b8115611da257838573ffffffffffffffffffffffffffffffffffffffff168273ffffffffffffffffffffffffffffffffffffffff167f8c5be1e5ebec7d5bd14f71427d1e84f3dd0314c0f7b2291e5b200ac8c7c3b92560405160405180910390a45b505b836004600085815260200190815260200160002060006101000a81548173ffffffffffffffffffffffffffffffffffffffff021916908373ffffffffffffffffffffffffffffffffffffffff16021790555050505050565b600080611e0884611bfa565b9050600073ffffffffffffffffffffffffffffffffffffffff168373ffffffffffffffffffffffffffffffffffffffff1614611e4a57611e498184866122ca565b5b600073ffffffffffffffffffffffffffffffffffffffff168173ffffffffffffffffffffffffffffffffffffffff1614611edb57611e8c600085600080611c37565b6001600360008373ffffffffffffffffffffffffffffffffffffffff1673ffffffffffffffffffffffffffffffffffffffff168152602001908152602001600020600082825403925050819055505b600073ffffffffffffffffffffffffffffffffffffffff168573ffffffffffffffffffffffffffffffffffffffff1614611f5e576001600360008773ffffffffffffffffffffffffffffffffffffffff1673ffffffffffffffffffffffffffffffffffffffff168152602001908152602001600020600082825401925050819055505b846002600086815260200190815260200160002060006101000a81548173ffffffffffffffffffffffffffffffffffffffff021916908373ffffffffffffffffffffffffffffffffffffffff160217905550838573ffffffffffffffffffffffffffffffffffffffff168273ffffffffffffffffffffffffffffffffffffffff167fddf252ad1be2c89b69c2b068fc378daa952ba7f163c4a11628f55a4df523b3ef60405160405180910390a4809150509392505050565b6008805490506009600083815260200190815260200160002081905550600881908060018154018082558091505060019003906000526020600020016000909190919091505550565b600061206a83610b82565b90506000600760008481526020019081526020016000205490506000600660008673ffffffffffffffffffffffffffffffffffffffff1673ffffffffffffffffffffffffffffffffffffffff16815260200190815260200160002090508282146121165760008160008581526020019081526020016000205490508082600085815260200190815260200160002081905550826007600083815260200190815260200160002081905550505b6007600085815260200190815260200160002060009055806000848152602001908152602001600020600090555050505050565b6000600160088054905061215e9190612f16565b905060006009600084815260200190815260200160002054905060006008838154811061218e5761218d612f4a565b5b9060005260206000200154905080600883815481106121b0576121af612f4a565b5b9060005260206000200181905550816009600083815260200190815260200160002081905550600960008581526020019081526020016000206000905560088054806121ff576121fe61352e565b5b6001900381819060005260206000200160009055905550505050565b6000600161222884610b82565b6122329190612f16565b905081600660008573ffffffffffffffffffffffffffffffffffffffff1673ffffffffffffffffffffffffffffffffffffffff168152602001908152602001600020600083815260200190815260200160002081905550806007600084815260200190815260200160002081905550505050565b6122b0838361238e565b6122c56122bb6115ab565b6000858585611925565b505050565b6122d5838383612487565b61238957600073ffffffffffffffffffffffffffffffffffffffff168373ffffffffffffffffffffffffffffffffffffffff160361234a57806040517f7e2732890000000000000000000000000000000000000000000000000000000081526004016123419190612a4c565b60405180910390fd5b81816040517f177e802f000000000000000000000000000000000000000000000000000000008152600401612380929190612ff8565b60405180910390fd5b505050565b600073ffffffffffffffffffffffffffffffffffffffff168273ffffffffffffffffffffffffffffffffffffffff16036124005760006040517f64a0ae920000000000000000000000000000000000000000000000000000000081526004016123f791906127ed565b60405180910390fd5b600061240e838360006115d3565b9050600073ffffffffffffffffffffffffffffffffffffffff168173ffffffffffffffffffffffffffffffffffffffff16146124825760006040517f73c6ac6e00000000000000000000000000000000000000000000000000000000815260040161247991906127ed565b60405180910390fd5b505050565b60008073ffffffffffffffffffffffffffffffffffffffff168373ffffffffffffffffffffffffffffffffffffffff161415801561253f57508273ffffffffffffffffffffffffffffffffffffffff168473ffffffffffffffffffffffffffffffffffffffff16148061250057506124ff848461117c565b5b8061253e57508273ffffffffffffffffffffffffffffffffffffffff166125268361156e565b73ffffffffffffffffffffffffffffffffffffffff16145b5b90509392505050565b604051806060016040528060008152602001606081526020016000151581525090565b50805461257790612eb6565b6000825580601f1061258957506125a8565b601f0160209004906000526020600020908101906125a791906125ab565b5b50565b5b808211156125c45760008160009055506001016125ac565b5090565b6000604051905090565b600080fd5b600080fd5b60007fffffffff0000000000000000000000000000000000000000000000000000000082169050919050565b612611816125dc565b811461261c57600080fd5b50565b60008135905061262e81612608565b92915050565b60006020828403121561264a576126496125d2565b5b60006126588482850161261f565b91505092915050565b60008115159050919050565b61267681612661565b82525050565b6000602082019050612691600083018461266d565b92915050565b6000819050919050565b6126aa81612697565b81146126b557600080fd5b50565b6000813590506126c7816126a1565b92915050565b6000602082840312156126e3576126e26125d2565b5b60006126f1848285016126b8565b91505092915050565b600081519050919050565b600082825260208201905092915050565b60005b83811015612734578082015181840152602081019050612719565b60008484015250505050565b6000601f19601f8301169050919050565b600061275c826126fa565b6127668185612705565b9350612776818560208601612716565b61277f81612740565b840191505092915050565b600060208201905081810360008301526127a48184612751565b905092915050565b600073ffffffffffffffffffffffffffffffffffffffff82169050919050565b60006127d7826127ac565b9050919050565b6127e7816127cc565b82525050565b600060208201905061280260008301846127de565b92915050565b612811816127cc565b811461281c57600080fd5b50565b60008135905061282e81612808565b92915050565b6000806040838503121561284b5761284a6125d2565b5b60006128598582860161281f565b925050602061286a858286016126b8565b9150509250929050565b60006020828403121561288a576128896125d2565b5b60006128988482850161281f565b91505092915050565b600081519050919050565b600082825260208201905092915050565b6000819050602082019050919050565b6128d681612697565b82525050565b600082825260208201905092915050565b60006128f8826126fa565b61290281856128dc565b9350612912818560208601612716565b61291b81612740565b840191505092915050565b61292f81612661565b82525050565b600060608301600083015161294d60008601826128cd565b506020830151848203602086015261296582826128ed565b915050604083015161297a6040860182612926565b508091505092915050565b60006129918383612935565b905092915050565b6000602082019050919050565b60006129b1826128a1565b6129bb81856128ac565b9350836020820285016129cd856128bd565b8060005b85811015612a0957848403895281516129ea8582612985565b94506129f583612999565b925060208a019950506001810190506129d1565b50829750879550505050505092915050565b60006020820190508181036000830152612a3581846129a6565b905092915050565b612a4681612697565b82525050565b6000602082019050612a616000830184612a3d565b92915050565b600080600060608486031215612a8057612a7f6125d2565b5b6000612a8e8682870161281f565b9350506020612a9f8682870161281f565b9250506040612ab0868287016126b8565b9150509250925092565b612ac381612661565b8114612ace57600080fd5b50565b600081359050612ae081612aba565b92915050565b60008060408385031215612afd57612afc6125d2565b5b6000612b0b8582860161281f565b9250506020612b1c85828601612ad1565b9150509250929050565b600080fd5b600080fd5b7f4e487b7100000000000000000000000000000000000000000000000000000000600052604160045260246000fd5b612b6882612740565b810181811067ffffffffffffffff82111715612b8757612b86612b30565b5b80604052505050565b6000612b9a6125c8565b9050612ba68282612b5f565b919050565b600067ffffffffffffffff821115612bc657612bc5612b30565b5b612bcf82612740565b9050602081019050919050565b82818337600083830152505050565b6000612bfe612bf984612bab565b612b90565b905082815260208101848484011115612c1a57612c19612b2b565b5b612c25848285612bdc565b509392505050565b600082601f830112612c4257612c41612b26565b5b8135612c52848260208601612beb565b91505092915050565b60008060008060808587031215612c7557612c746125d2565b5b6000612c838782880161281f565b9450506020612c948782880161281f565b9350506040612ca5878288016126b8565b925050606085013567ffffffffffffffff811115612cc657612cc56125d7565b5b612cd287828801612c2d565b91505092959194509250565b600067ffffffffffffffff821115612cf957612cf8612b30565b5b612d0282612740565b9050602081019050919050565b6000612d22612d1d84612cde565b612b90565b905082815260208101848484011115612d3e57612d3d612b2b565b5b612d49848285612bdc565b509392505050565b600082601f830112612d6657612d65612b26565b5b8135612d76848260208601612d0f565b91505092915050565b60008060408385031215612d9657612d956125d2565b5b6000612da48582860161281f565b925050602083013567ffffffffffffffff811115612dc557612dc46125d7565b5b612dd185828601612d51565b9150509250929050565b60008060408385031215612df257612df16125d2565b5b6000612e008582860161281f565b9250506020612e118582860161281f565b9150509250929050565b7f546f6b656e20646f6573206e6f74206578697374000000000000000000000000600082015250565b6000612e51601483612705565b9150612e5c82612e1b565b602082019050919050565b60006020820190508181036000830152612e8081612e44565b9050919050565b7f4e487b7100000000000000000000000000000000000000000000000000000000600052602260045260246000fd5b60006002820490506001821680612ece57607f821691505b602082108103612ee157612ee0612e87565b5b50919050565b7f4e487b7100000000000000000000000000000000000000000000000000000000600052601160045260246000fd5b6000612f2182612697565b9150612f2c83612697565b9250828203905081811115612f4457612f43612ee7565b5b92915050565b7f4e487b7100000000000000000000000000000000000000000000000000000000600052603260045260246000fd5b6000612f8482612697565b91507fffffffffffffffffffffffffffffffffffffffffffffffffffffffffffffffff8203612fb657612fb5612ee7565b5b600182019050919050565b6000606082019050612fd660008301866127de565b612fe36020830185612a3d565b612ff060408301846127de565b949350505050565b600060408201905061300d60008301856127de565b61301a6020830184612a3d565b9392505050565b7f496e76616c69642073747564656e742077616c6c657400000000000000000000600082015250565b6000613057601683612705565b915061306282613021565b602082019050919050565b600060208201905081810360008301526130868161304a565b9050919050565b7f53747564656e7420616c7265616479206861732061206365727469666963617460008201527f6500000000000000000000000000000000000000000000000000000000000000602082015250565b60006130e9602183612705565b91506130f48261308d565b604082019050919050565b60006020820190508181036000830152613118816130dc565b9050919050565b60008190508160005260206000209050919050565b60006020601f8301049050919050565b600082821b905092915050565b6000600883026131817fffffffffffffffffffffffffffffffffffffffffffffffffffffffffffffffff82613144565b61318b8683613144565b95508019841693508086168417925050509392505050565b6000819050919050565b60006131c86131c36131be84612697565b6131a3565b612697565b9050919050565b6000819050919050565b6131e2836131ad565b6131f66131ee826131cf565b848454613151565b825550505050565b600090565b61320b6131fe565b6132168184846131d9565b505050565b5b8181101561323a5761322f600082613203565b60018101905061321c565b5050565b601f82111561327f576132508161311f565b61325984613134565b81016020851015613268578190505b61327c61327485613134565b83018261321b565b50505b505050565b600082821c905092915050565b60006132a260001984600802613284565b1980831691505092915050565b60006132bb8383613291565b9150826002028217905092915050565b6132d4826126fa565b67ffffffffffffffff8111156132ed576132ec612b30565b5b6132f78254612eb6565b61330282828561323e565b600060209050601f8311600181146133355760008415613323578287015190505b61332d85826132af565b865550613395565b601f1984166133438661311f565b60005b8281101561336b57848901518255600182019150602085019450602081019050613346565b868310156133885784890151613384601f891682613291565b8355505b6001600288020188555050505b505050505050565b7f55524920717565727920666f72206e6f6e6578697374656e7420746f6b656e00600082015250565b60006133d3601f83612705565b91506133de8261339d565b602082019050919050565b60006020820190508181036000830152613402816133c6565b9050919050565b60008151905061341881612808565b92915050565b600060208284031215613434576134336125d2565b5b600061344284828501613409565b91505092915050565b600081519050919050565b600082825260208201905092915050565b60006134728261344b565b61347c8185613456565b935061348c818560208601612716565b61349581612740565b840191505092915050565b60006080820190506134b560008301876127de565b6134c260208301866127de565b6134cf6040830185612a3d565b81810360608301526134e18184613467565b905095945050505050565b6000815190506134fb81612608565b92915050565b600060208284031215613517576135166125d2565b5b6000613525848285016134ec565b91505092915050565b7f4e487b7100000000000000000000000000000000000000000000000000000000600052603160045260246000fdfea2646970667358221220be8006ddf7af88e03e2633664516d5e5789012f597c4ce9e2b7a4be774a41c5264736f6c63430008140033",
  "linkReferences": {},
  "deployedLinkReferences": {}
}